:040000000C946F00ED
:100004000C9400000C9400000C94FC000C94000070
:100014000C9400000C9400000C9400000C9400005C
:100024000C9400000C949F000C9400000C940000AD
:100034000C9400000C9400000C9400000C9400003C
:100044000C9400000C9400000C9400000C9400002C
:100054001027E80364000A000100001000011000EA
:10006400010000000000000001030906256400658A
:100074006E746572207061737300636F727265636E
:100084007400696E636F7272656374006F6C6420D0
:10009400706173733F006E657720706173733F0006
:1000A40072657365742070617373000080C0010011
:1000B4002D4E414E00494E460000060008006600E1
:1000C400040083026C000B006002730002008702CC
:1000D400B00001008D02B2000000F894EE27ECBBE2
:1000E400F1E0FBBFEBBFE5BFF8E1F1BDE1BD8DE0A1
:1000F400A2E0BB27ED938A95E9F780E098E0A0E6BB
:10010400ED930197E9F7EEEBF0E085919591009777
:1001140061F0A591B59105901590BF01F00105908E
:100124000D920197E1F7FB01F0CFEFE5EDBFE8E0B9
:10013400EEBFC0E6D2E00C946901EA93EFB7EA930C
:100144008394E2E0E81511F443948824E991EFBF25
:10015400E9911895AA93E881E062E7B983E08A956A
:10016400F1F7369A349BFECF349AE5B1F0E00C9463
:10017400BB0290980E948404839902C0E1E05E2E41
:10018400849902C0E4E05E2E859902C0E7E05E2E09
:10019400869908C0A8EEB3E00E94C504869902C0FF
:1001A400EAE25E2E909A91980E948404839902C098
:1001B400E2E05E2E849902C0E5E05E2E859902C0DD
:1001C400E8E05E2E869B5524919A92980E948404BE
:1001D400839902C0E3E05E2E849902C0E6E05E2EBD
:1001E400859902C0E9E05E2E869902C0E3E25E2EA4
:1001F400929A08950A921A92FA926A937A938A9337
:100204009A93AA93BA93EA93FA93EFB7EA93F8947A
:10021400EFE7E2BBAEDFE8E7E2BB7894E991EFBF3A
:10022400F991E991B991A9919991899179916991FA
:10023400F990199009901895EAE0E51569F1BB2049
:1002440009F422D1BA92A0E010D1EBE6F2E0FA93DD
:10025400EA93E0E7F0E0FA93EA93E52DFF276627B7
:1002640077270E94DF0484E00E9431042896ABE6DD
:10027400B2E031D144248824E1E04E16E8F3BA9286
:10028400A0E0F3D0AAE20DD1EB2DF0E0E158FD4F50
:100294005082B394EAE05E2EE4E0EB1511F4BB2443
:1002A40001C0CACF0895DD24E4E0DE1678F4ED2D14
:1002B400F0E0E158FD4FA081ED2DF0E0ED57FD4F4A
:1002C400E081EA1709F4A394D394EECF089510E0E3
:1002D400E4E15E2EEFE0EBBBE0E0EABBE8BBE7BBAA
:1002E400E5BBEFEFE4BBE8E7E2BBE7E0E1BBEDE051
:1002F400E3BFE0E0E2BFE5EFECBFEBB7E062EBBFEA
:10030400E0E0E5BFE0E4E4BFE0E2EABFE2E0E9BF49
:10031400E0E2E7B9E1E8E6B9A0E1FFD0B5D078942E
:10032400E4E1E51539F4E3E0EA93A0E09ED0A0E629
:10033400B2E0D1D0E4E1E51519F0EAE0E51509F4FD
:1003440008C0E3E2E51519F0EAE2E51509F401C095
:1003540073DFE3E2E515F1F4AA24A5DFE4E0EA158E
:1003640031F492D0AEE7B0E0C5D0EAE010C0442446
:100374008824A6E8B0E0BED0EBB7EF71EBBFECE3A6
:100384004E16E8F3EBB7E062EBBF7ED0E4E15E2EFD
:10039400BB24AA24EAE2E51579F576D0A0E9B0E019
:1003A400A9D0EAE05E2E48DF7EDF0E948804E4E004
:1003B400EA15E1F469D00E948804AAE9B0E09AD071
:1003C4003BDF10E0143060F4A12FB0E0AD57BD4F17
:1003D400E12FF0E0E158FD4FE081EC931F5FF2CF95
:1003E400E4E15E2E51D00E94880406C0E4E0EA15E0
:1003F40019F0E4E15E2E48D0A0E0ACDE9E2EA1E030
:10040400A9DE6E2EA92DA6190E9465047E2EE6E6AD
:10041400E71549F4EAE05E2EE3E0EA93A0E025D094
:10042400A4EAB0E067D07CCFFFCFAA93E5B3EF7026
:10043400AE2FE881E07FEA2BE5BB82E08A95F1F7F5
:10044400AA9A82E08A95F1F7AA9882E08A95F1F750
:1004540090C0AA93A881E9DFE881E295E883A881A6
:10046400E4DF81E18A95F1F784C0AA93E881F0E0A2
:10047400E957FD4FE081A981AE0FEBDFC980E88128
:10048400E0938B0222960895A2E00E948C04ACE0D3
:10049400E0DFA1E00E948C04E0E0E0938B02CE2E2A
:1004A4000895AA93A881AA3021F0E0918C02CE1677
:1004B40060F0E0E0EA93A0918B02AF5FA0938B021F
:1004C400D4DFA881AA3009F454C0C394A89AA8819F
:1004D400C0DFA8984EC0BA93AA931A93A981BA818F
:1004E400ED91A983BA831E2FE03019F0A12FD9DF33
:1004F400F5CF10C0BA93AA931A93E981FA81319681
:10050400E983FA833197E4911E2FE03019F0A12F8B
:10051400C8DFF3CF188123960895AA93E4B3E06F5C
:10052400E4BBA29AA09AA19AAA98A898A998E8814B
:10053400E0938C02E058E0938902E881E054E09370
:100544008A02A4E1B0E00E94C5040E9492040E94C1
:1005540092040E949204A0E268DF81E28A95F1F796
:10056400A8E277DFA4E075DFA5E873DFA6E071DF1A
:100574008BDF21960895BA93AA931A930A93AA81BA
:10058400BB8112960E94D704309759F1AA81BB818E
:1005940014960E94D7048F01309761F00230E0E096
:1005A4001E0798F0F80131978F01AA81BB81149638
:1005B400ED93FC93AA81BB811296ED91FD91319646
:1005C400FE93EE933197AC81A083AA81BB810E94F4
:1005D400D704FF232AF0ED91FD913196FE93EE931B
:1005E40006C0AA81BB81EFEFFFEFED93FC93198165
:1005F400088125960895BA93AA9326970E94E40445
:1006040010E0AC85BD85E0E0F0E0ED93FC93EA8971
:10061400FB893196EA8BFB8B3197E4912E2FE030E6
:1006240009F415C1E12FE03039F4253211F411E059
:1006340002C00E9499040AC1E130A9F4253219F4D8
:100644000E94990402C112E040E000E02D3211F44E
:1006540001E0FCC02B3211F44BE2F8C0203211F45B
:1006640040E2F4C002C0E23039F450E013E0203339
:1006740011F40068EBC003C0E33009F0E7C0203395
:1006840010F02A3308F007C0AAE05A9F502DE22F39
:10069400E0535E0FDBC0E22FE33649F40E94A0046E
:1006A400E889F989A481AA930E94A604CEC0E337FD
:1006B40041F40E94A0040E94AC040E946B041E2F0B
:1006C4000AC0E03761F40E94A0040E94AC040E94B6
:1006D40077041E2F086002600F7730E034C0E436E0
:1006E40011F0E93611F4046002C0E53731F4E4E5B1
:1006F400F0E0EE83FF8315E00CC0E83511F40860E8
:1007040003C0E83709F0A1C0EEE5F0E0EE83FF8313
:1007140014E002FF14C00E94A0040E94B604AB853A
:10072400AA233AF4EA85FB850E94D304EA87FB876F
:100734004DE2403011F01F5F01C00B7F04C00E94E6
:10074400A0040E94B60400FD11C0151778F407FF39
:1007540008C002FF04C00B7F242F115001C020E306
:1007640001C020E20E9499045150EFCF312F01FFC4
:1007740017C03030A1F003FF06C0EE81FF81259140
:10078400EE83FF8305C0AE81BF812D91AE83BF830D
:100794000E949904503009F051503150EACF4BC0B7
:1007A40020E3EE81FF810E94DB04E887F987EE8174
:1007B400FF813296EE83FF83E885F985AA85BB85A0
:1007C400AE17BF0750F02F5FA885B985EA85FB8572
:1007D400EA1BFB0BEA87FB87EFCF2A3328F003FFE2
:1007E40002C0295F01C0295D04FD1AC0213320F431
:1007F400A885B985119709F409C0531710F000FFB3
:1008040001C013C020E207FF0BC020E3006102FF18
:1008140007C00B7F4A930E94A604503009F0515040
:100824000E949904503009F051503150A885B9857F
:10083400129708F0B5CF00FF08C0503031F0515086
:10084400E0E2EA930E94A604F8CF10E0E0CEAC8583
:10085400BD850E94D7040E94EB0464960895FF921C
:10086400F82E26970E94E6040E94BE04309719F4DD
:10087400EFEFFFEF23C0DE0116960E94CF048D0137
:100884000E94BE04EE83FF83E0E0E887E987DE018F
:100894001A960E94CF040E94D704FA93EA931A93FB
:1008A4000A93EDEBF2E0FA93EA93DE011A96A3DEE3
:1008B4009F01AE81BF81E0E0EC93F9010E94ED0459
:1008C4002A96FF900895AA93E991E0300AF4E195FD
:1008D4000895BA93AA93A991B991EE27FF276D9130
:1008E400662311F03196FBCF0895BA93AA93AA27F1
:1008F400BB27E991F9910590002011F01196FBCFE7
:10090400FD010895A2E0B0E00C94C504A8ECB0E0A9
:100914000C94C5040E942B02A3E0B0E00C94C5041F
:10092400A0E30E94170281E28A95F1F708952A93C1
:10093400AD85BE85EF85F88909950895E889F9891B
:100944003497E88BF98B0895AD85BE85EF85F889DA
:1009540009950895A889B98914960E94D704EE834D
:10096400FF83AE81BF810895A889B98914960E9436
:10097400D704EA87FB870895DE011C960E94CF0402
:100984000E94D7040895109639F08AEF90E00197F9
:10099400F1F7A8951197C9F708950024AF0DB01D7C
:1009A4000895F195E195F0400895ED91FC9111972A
:1009B40008950590F491E02D08957A936A93FA933B
:1009C400EA9308955A934A933A932A931A930A936B
:1009D40008955D814C813B812A81198108810895A4
:00000001FF
